:1000000045C0000058C0000056C0000054C00000A9
:1000100052C0000050C000004EC000004CC00000A4
:100020004AC0000048C0000046C0000044C00000B4
:1000300042C0000040C000003EC000003CC00000C4
:100040003AC0000038C0000036C0000034C00000D4
:1000500032C0000030C000002EC000002CC00000E4
:100060002AC0000028C0000026C0000024C00000F4
:1000700022C0000020C000001EC000001CC0000004
:100080001AC0000018C0000016C0000011241FBED6
:10009000CFEFD0E4DEBFCDBF11E0A0E0B1E0E8EFEC
:1000A000F2E000E00BBF02C007900D92AC30B10748
:1000B000D9F717D11FC1A4CFCF93DF93CDB7DEB748
:1000C000809102019091030120910201309103017E
:1000D000F90120812061FC0120830000DF91CF9194
:1000E0000895CF93DF93CDB7DEB780910201909151
:1000F00003012091020130910301F9012081286060
:10010000FC0120830000DF91CF910895CF93DF930E
:10011000CDB7DEB78091000190910101FC01808193
:100120008072DF91CF910895CF93DF93CDB7DEB783
:100130008091040190910501209104013091050105
:10014000F90120812260FC012083809104019091BB
:1001500005012091040130910501F90120812460FD
:10016000FC01208380910201909103012091020102
:1001700030910301F90120812B7FFC0120830000D5
:10018000DF91CF910895CF93DF93CDB7DEB7809104
:10019000000190910101FC0180818078DF91CF9175
:1001A0000895CF93DF931F92CDB7DEB789838981FE
:1001B000823071F480910401909105012091040135
:1001C00030910501F90120812860FC01208310C0D5
:1001D0008981813069F48091040190910501209119
:1001E000040130910501F9012081277FFC01208362
:1001F00000000F90DF91CF910895CF93DF93CDB79B
:10020000DEB7809106019091070120EAFC0120836E
:10021000809108019091090121E0FC0120830000F8
:10022000DF91CF910895CF93DF93CDB7DEB781E013
:10023000B8DF7ADFE2DF0000DF91CF910895CF933E
:10024000DF93CDB7DEB700009EDF8823E9F380910E
:100250000A0190910B01FC018081DF91CF910895FB
:10026000CF93DF931F92CDB7DEB7898300004EDFB7
:100270008823E9F380910A0190910B012981FC0107
:10028000208300000F90DF91CF910895CF93DF93EB
:100290001F92CDB7DEB7D3DF89838981813609F418
:1002A0000AD08981882311F08981DADF00000F905C
:1002B000DF91CF910895CF93DF93CDB7DEB784E27E
:1002C00090E02FEFFC01208385E290E025E230E012
:1002D000F90120812095FC0120830000DF91CF915E
:1002E0000895CF93DF93CDB7DEB7FBDEE5DE9BDF6E
:0802F000CDDFFECFF894FFCF33
:0C02F800C000C100C200C400C500C60068
:00000001FF
