:1000000045C000004BC0000049C0000047C00000D0
:1000100045C0000043C0000041C000003FC00000D8
:100020003DC000003BC0000039C0000037C00000E8
:1000300035C0000033C0000031C000002FC00000F8
:100040002DC000002BC0000029C0000027C0000008
:1000500025C0000023C0000021C000001FC0000018
:100060001DC000001BC0000019C0000017C0000028
:1000700015C0000013C0000011C000000FC0000038
:100080000DC000000BC0000009C0000011241FBEFD
:10009000CFEFD0E4DEBFCDBF35D040C0B1CFE0E977
:1000A000F0E080818068808380818F7B8083808185
:1000B0008062808380818F7E80830895E1E9F0E013
:1000C000808180618083808188608083E0E9F0E0C6
:1000D00080818260808380818E7F80830895E1E9C2
:1000E000F0E080818460808380818D7F8083808147
:1000F000816080830895269A0895D1DFDFDFEFDFE6
:10010000FACF0895FADF8FEF809398009FE09093E5
:1001100099008093960080939700FFCFF894FFCFCB
:00000001FF
