:1000000045C000004BC0000049C0000047C00000D0
:1000100045C0000043C0000041C000003FC00000D8
:100020003DC000003BC0000039C0000037C00000E8
:1000300035C0000033C0000031C000002FC00000F8
:100040002DC000002BC0000029C0000027C0000008
:1000500025C0000023C0000021C000001FC0000018
:100060001DC000001BC0000019C0000017C0000028
:1000700015C0000013C0000011C000000FC0000038
:100080000DC000000BC0000009C0000011241FBEFD
:10009000CFEFD0E4DEBFCDBFEAD00BC1B1CFCF935D
:1000A000DF93CDB7DEB78AE790E02AE730E0F901C9
:1000B00020812068FC0120830000DF91CF9108950A
:1000C000CF93DF93CDB7DEB78AE790E02AE730E041
:1000D000F90120812460FC0120838AE790E02AE76F
:1000E00030E0F90120812260FC0120838AE790E062
:1000F0002AE730E0F90120812160FC012083000023
:10010000DF91CF910895CF93DF93CDB7DEB78CE722
:1001100090E02CE730E0F90120812F7EFC01208364
:100120008CE790E02CE730E0F9012081277FFC018B
:1001300020838CE790E02CE730E0F90120812B7FD1
:10014000FC0120838CE790E02CE730E0F90120816E
:100150002D7FFC0120838CE790E02CE730E0F90153
:1001600020812E7FFC0120830000DF91CF91089534
:10017000CF93DF93CDB7DEB78CE790E02CE730E08C
:10018000F90120812F7DFC0120830000DF91CF91B8
:100190000895CF93DF93CDB7DEB78CE790E02CE7DF
:1001A00030E0F90120812F77FC0120838CE790E07B
:1001B0002CE730E0F90120812064FC01208300005D
:1001C000DF91CF910895CF93DF93CDB7DEB767DF8F
:1001D00077DF99DFDEDFCCDF0000DF91CF9108957C
:1001E000CF93DF9300D000D0CDB7DEB78AE790E0A1
:1001F0002AE730E0F90120812064FC01208300001F
:100200008AE790E0FC018081882F90E08074992734
:10021000892BB1F789E790E0FC018081882F90E07D
:100220009A83898389819A81982F88279A838983E1
:1002300088E790E0FC018081882F90E029813A8155
:10024000822B932B9A83898388E790E0FC0180813D
:100250008B8389E790E0FC0180818C8389819A817E
:100260000F900F900F900F90DF91CF910895CF9343
:10027000DF93CDB7DEB784E290E02FEFFC0120835F
:1002800085E290E025E230E0F90120812160FC0167
:10029000208399DFA5DF853F914028F085E290E03B
:1002A000FC011082F7CF85E290E02FEFFC01208364
:0602B000F1CFF894FFCF2E
:00000001FF
